:1000000033C000004CC000004AC0000048C00000DF
:1000100046C0000044C0000042C0000040C00000D4
:100020003EC000003CC000003AC0000054C00000C8
:1000300036C0000034C0000032C0000030C00000F4
:100040002EC000002CC000002AC0000028C0000004
:1000500026C0000024C0000022C0000020C0000014
:100060001EC000001CC0000011241FBECFEFD8E04E
:10007000DEBFCDBF11E0A0E0B1E0E4E2F4E002C0F9
:1000800005900D92AA30B107D9F721E0AAE0B1E0BE
:1000900001C01D92AB31B207E1F7EBD0C1C1B0CFC7
:1000A00084B18C6284B92A9A81E58CBD8DB581605A
:1000B0008DBD08958EBD0DB407FEFDCF089510923D
:1000C000C50083E38093C40088E18093C10086E08B
:1000D0008093C20008951F920F920FB60F921124C1
:1000E00010920A01109281001092850010928400F3
:1000F0000F900FBE0F901F901895CF92DF92EF9246
:10010000FF920F931F93CF93DF936C01EB012A981B
:100110008AE2D0DF8E017E0185E0E80EF11C899134
:10012000C9DFEC16FD06D9F72A9A2A988BE2C2DFBE
:10013000E601E5E0CE0ED11C8991BCDFCC15DD05D2
:10014000D9F72A9A2A9880E3B5DFF80181918F01C7
:10015000B1DF0E151F05C9F72A9A2A9881E3AADF95
:100160008EE0A8DF2A9A2A9882E3A4DF8EE0A2DF3D
:100170002A9A2A9880E29EDF8FE09CDF2A9A2A98AA
:1001800085E298DF8CE496DF2A9A2A9884E292DF4F
:100190008FE590DF2A9A2A9886E28CDF88E08ADF52
:1001A0002A9A2A9887E286DF80E784DF2A9A2A98AB
:1001B00082EE80DF2A9A2A9881EE7CDF2A9ADF91EC
:1001C000CF911F910F91FF90EF90DF90CF90089506
:1001D0000F931F93CF93DF938C0129982A9880E285
:1001E00069DF8EE067DF2A9A2A9887E263DF80E77B
:1001F00061DF2A9A2A9880EA5DDFE801025F1F4FDB
:10020000899158DFC017D107D9F72A9A299A85E32F
:100210008A95F1F700002998EBE0F1E087E180830F
:100220009FEF91832A988EBD00000DB407FEFDCF8D
:100230008EB580930B018FEF8EBD00000DB407FECD
:10024000FDCF8EB5EBE0F1E081832A9A808185FFB6
:1002500007C02A9887E22EDF80E72CDF2A9A04C0A5
:100260002A988EE027DF2A9ADF91CF911F910F9174
:100270000895CF93DF93CDB7DEB72A970FB6F894E2
:10028000DEBF0FBECDBFE1E6F0E080E8808381E015
:100290008083789488E09DE3909389008093880020
:1002A000EFE6F0E080818260808384B1866284B969
:1002B00029988AB188628AB95B9A2FEF89E698E11A
:1002C000215080409040E1F700C000005B985D9AAB
:1002D0002A9AE6DEF4DEEFE1FEE43197F1F700C0A2
:1002E00000005D988AE6E6DE80E1E4DE5D9A85E066
:1002F000E0E0F1E0DE01119601900D928A95E1F7C0
:1003000085E0E5E0F1E0DE01169601900D928A9518
:10031000E1F7BE016F5F7F4FCE010696EEDE1092D1
:100320000D010DE011E05D988BEBC4DE1EBC0000FA
:100330000DB407FEFDCF8EB5F80180831EBC000012
:100340000DB407FEFDCF8EB5F80181831EBC000001
:100350000DB407FEFDCF8EB5F80182831EBC0000F0
:100360000DB407FEFDCF8EB5F80183831EBC0000DF
:100370000DB407FEFDCF8EB5F80184831EBC0000CE
:100380000DB407FEFDCF8EB5F80185831EBC0000BD
:100390000DB407FEFDCF8EB5F80186831EBC0000AC
:1003A0000DB407FEFDCF8EB5F80187831EBC00009B
:1003B0000DB407FEFDCF8EB5F80180871EBC00008E
:1003C0000DB407FEFDCF8EB5F80181871EBC00007D
:1003D0000DB407FEFDCF8EB5F80182871EBC00006C
:1003E0000DB407FEFDCF8EB5F80183871EBC00005B
:1003F0000DB407FEFDCF8EB5F80184871EBC00004A
:100400000DB407FEFDCF8EB5F80185875D9AC80152
:10041000DFDE87E49DE00197F1F700C0000083CFA5
:04042000F894FFCF7E
:0A04240077F0F0E8E8E1F0F0E8E816
:00000001FF
