:1000000033C0000077C000004AC0000048C00000B4
:1000100046C0000044C0000042C0000040C00000D4
:100020003EC000003CC000003AC00000B8C1000063
:1000300036C0000034C0000032C0000030C00000F4
:100040002EC000002CC000002AC0000028C0000004
:1000500026C0000024C0000022C0000020C0000014
:100060001EC000001CC0000011241FBECFEFD8E04E
:10007000DEBFCDBF11E0A0E0B1E0E4E7F4E002C0F4
:1000800005900D92AC30B107D9F721E0ACE0B1E0BA
:1000900001C01D92A033B207E1F713D1E9C1B0CF7F
:1000A00084B18C6284B92A9A81E58CBD8DB581605A
:1000B0008DBD08958EBD0DB407FEFDCF08958EBD94
:1000C00000000DB407FEFDCF8EB508951092C50057
:1000D00083E38093C40088E18093C10086E080932D
:1000E000C2000895E0ECF0E0908195FFFDCF809391
:1000F000C60008951F920F920FB60F9211242F93EE
:100100003F934F935F936F937F938F939F93AF939F
:10011000BF93CF93DF93EF93FF93C1E8D0E0888143
:100120008D7F888310928500109284002A9887E240
:10013000C1DF80E4BFDF2A9A5F9A8FE891E00197E0
:10014000F1F700C000005F982A9882EEB3DF2A9A88
:10015000888182608883FF91EF91DF91CF91BF9179
:10016000AF919F918F917F916F915F914F913F914F
:100170002F910F900FBE0F901F901895CF92DF9286
:10018000EF92FF920F931F93CF93DF936C01EB01DC
:100190002A988AE28FDF8E017E0185E0E80EF11C4D
:1001A000899188DFEC16FD06D9F72A9A2A988BE206
:1001B00081DFE601E5E0CE0ED11C89917BDFCC1515
:1001C000DD05D9F72A9A2A9880E374DFF801819136
:1001D0008F0170DF0E151F05C9F72A9A2A9881E34F
:1001E00069DF8EE067DF2A9A2A9882E363DF8EE078
:1001F00061DF2A9A2A9880E25DDF8FE35BDF2A9A2B
:100200002A9885E257DF8CE455DF2A9A2A9884E2FF
:1002100051DF83E04FDF2A9A2A9886E24BDF88E09D
:1002200049DF2A9A2A9887E245DF80E743DF2A9A46
:100230002A9882EE3FDF2A9A2A9881EE3BDF2A9A9B
:10024000DF91CF911F910F91FF90EF90DF90CF90B2
:10025000089584B1866284B929988AB188628AB97E
:100260005A9A7894E1E8F0E080818860808388EE93
:1002700093E09093890080938800EFE6F0E080811E
:100280008260808381E62EDFE9E6F0E08081826093
:100290008083E89A81E626DF5D9A2A9A01DF8FE162
:1002A0009EE40197F1F700C000005D988AE602DF46
:1002B00080E100DF5D9A65E071E080E091E05ECF73
:1002C0000895E1E6F0E080E8808381E08083FEDE4F
:1002D000579A82E607DFBDDF5B9A2FEF89E698E148
:1002E000215080409040E1F700C000005B981092E0
:1002F0000E0110920D0110920C0189E6F3DEE1E887
:10030000F0E0808182608083299AFFCF0F931F9352
:10031000CF93DF938C0129982A9880E2CBDE8EE37D
:10032000C9DE2A9A8BE291E00197F1F700C0000044
:100330002A9887E2BFDE80E7BDDE2A9A2A9880EA03
:10034000B9DEE801025F1F4F8991B4DEC017D10703
:10035000D9F72A9A299A87E592E00197F1F700C028
:10036000000029982A9887E1AADEC1E1D1E08883BC
:100370008FEFA5DE89832A9A888185FF07C02A9896
:1003800087E298DE80E796DE2A9A04C02A9881EEFA
:1003900091DE2A9ADF91CF911F910F9108951F92BC
:1003A0000F920FB60F9211242F933F934F935F93A9
:1003B0006F937F938F939F93AF93BF93CF93DF936D
:1003C000EF93FF935D988BEB75DE80E078DEC1E202
:1003D000D1E0888380E073DE898380E070DE8A83E9
:1003E00080E06DDE8B8380E06ADE8C8380E067DEF8
:1003F0008D8380E064DE8E8380E061DE8F8380E029
:100400005EDE888780E05BDE898780E058DE8A8751
:1004100080E055DE8B8780E052DE8C8780E04FDE07
:100420008D875D9ACE0172DF2A9880E243DE8FE3EA
:1004300041DE2A9A299A9BB188E089278BB981E00D
:1004400090E090930B0180930A01FF91EF91DF916F
:10045000CF91BF91AF919F918F917F916F915F915C
:100460004F913F912F910F900FBE0F901F901895B5
:04047000F894FFCF2E
:0C047400E1F0F0E8E877F0F0E8E80100C3
:00000001FF
