:1000000033C000004CC000004AC0000048C00000DF
:1000100046C0000044C0000042C0000040C00000D4
:100020003EC000003CC000003AC0000032C10000E9
:1000300036C0000034C0000032C0000030C00000F4
:100040002EC000002CC000002AC0000028C0000004
:1000500026C0000024C0000022C0000020C0000014
:100060001EC000001CC0000011241FBECFEFD8E04E
:10007000DEBFCDBF11E0A0E0B1E0E8E8F4E002C0EF
:1000800005900D92AC30B107D9F721E0ACE0B1E0BA
:1000900001C01D92AB32B207E1F7A6D1F3C1B0CFD8
:1000A00084B18C6284B92A9A81E58CBD8DB581605A
:1000B0008DBD08958EBD0DB407FEFDCF089510923D
:1000C000C50083E38093C40088E18093C10086E08B
:1000D0008093C2000895CF92DF92EF92FF920F9328
:1000E0001F93CF93DF936C01EB012A988AE2E2DF42
:1000F0008E017E0185E0E80EF11C8991DBDFEC16B4
:10010000FD06D9F72A9A2A988BE2D4DFE601E5E0CA
:10011000CE0ED11C8991CEDFCC15DD05D9F72A9AF8
:100120002A9880E3C7DFF80181918F01C3DF0E15A4
:100130001F05C9F72A9A2A9881E3BCDF8EE0BADF4F
:100140002A9A2A9882E3B6DF8EE0B4DF2A9A2A98A8
:1001500080E2B0DF8FE0AEDF2A9A2A9885E2AADF3C
:100160008CE4A8DF2A9A2A9884E2A4DF8FE5A2DF34
:100170002A9A2A9886E29EDF88E09CDF2A9A2A98AB
:1001800087E298DF80E796DF2A9A2A9882EE92DF4C
:100190002A9A2A9881EE8EDF2A9ADF91CF911F91B9
:1001A0000F91FF90EF90DF90CF9008957894E1E861
:1001B000F0E080818260808388EE93E090938900F4
:1001C00080938800EFE6F0E080818260808384B1D4
:1001D000866284B929988AB188628AB95D9A2A9A16
:1001E0005FDF8FE19EE40197F1F700C000005D98AA
:1001F0008AE660DF80E15EDF5D9A65E071E080E0C5
:1002000091E069CF08950F931F93CF93DF938C01F3
:1002100029982A9880E24EDF8EE04CDF2A9A2A98AD
:1002200087E248DF80E746DF2A9A2A9880EA42DFA1
:10023000E801025F1F4F89913DDFC017D107D9F751
:100240002A9A299A85E38A95F1F7000029982A9835
:1002500087E18EBD00000DB407FEFDCF8EB59FEF88
:100260009EBD00000DB407FEFDCF9EB52A9A85FF06
:1002700007C02A9887E21EDF80E71CDF2A9A04C0A5
:100280002A988EE017DF2A9ADF91CF911F910F9164
:1002900008951F920F920FB60F9211242F933F9340
:1002A0004F935F936F937F938F939F93AF93BF937E
:1002B000EF93FF935D988BEBFDDE1EBC00000DB449
:1002C00007FEFDCF8EB580931D011EBC00000DB44E
:1002D00007FEFDCF8EB580931E011EBC00000DB43D
:1002E00007FEFDCF8EB580931F011EBC00000DB42C
:1002F00007FEFDCF8EB5809320011EBC00000DB41B
:1003000007FEFDCF8EB5809321011EBC00000DB409
:1003100007FEFDCF8EB5809322011EBC00000DB4F8
:1003200007FEFDCF8EB5809323011EBC00000DB4E7
:1003300007FEFDCF8EB5809324011EBC00000DB4D6
:1003400007FEFDCF8EB5809325011EBC00000DB4C5
:1003500007FEFDCF8EB5809326011EBC00000DB4B4
:1003600007FEFDCF8EB5809327011EBC00000DB4A3
:1003700007FEFDCF8EB5809328011EBC00000DB492
:1003800007FEFDCF8EB5809329011EBC00000DB481
:1003900007FEFDCF8EB580932A015D9A8DE191E035
:1003A00032DFFF91EF91BF91AF919F918F917F913C
:1003B0006F915F914F913F912F910F900FBE0F90D2
:1003C0001F901895409184005091850028EE33E0ED
:1003D000241B350B2817390720F481E080930A018C
:1003E000089510920A010895E1E6F0E080E8808324
:1003F00081E08083DBDE5B9A2FEF89E698E1215074
:1004000080409040E1F700C000005B9858DE1092F9
:100410000D0110920C01D5E0C1E080910A018130FC
:10042000F1F780910E01813029F080910D01882330
:10043000D1F01AC080E090E0C5DF80910A018130E0
:1004400061F780910C01815080930C01811103C0F0
:1004500010920E01E2CF80E090E0B4DF80910A01BB
:100460008111EFCFDACFFFCF80E090E0ABDF80915A
:100470000A01813091F6D0930C01C0930E011092C5
:080480000D01CBCFF894FFCF72
:0C048800E1F0F0E8E877F0F0E8E80100AF
:00000001FF
