:1000000033C000000EC200004AC0000048C000001B
:1000100046C0000044C0000042C0000040C00000D4
:100020003EC000003CC000003AC0000058C10000C3
:1000300036C0000034C0000032C0000030C00000F4
:100040002EC000002CC000002AC0000028C0000004
:1000500026C0000024C0000022C0000020C0000014
:100060001EC000001CC0000011241FBECFEFD8E04E
:10007000DEBFCDBF11E0A0E0B1E0E0E9F4E002C0F6
:1000800005900D92AA30B107D9F721E0AAE0B1E0BE
:1000900001C01D92A932B207E1F7B4D0F7C1B0CFC9
:1000A00084B18C6284B92A9A80E58CBD08958EBD96
:1000B0000DB407FEFDCF08958EBD00000DB407FE00
:1000C000FDCF8EB50895CF92DF92EF92FF920F93FE
:1000D0001F93CF93DF936C01EB012A988AE2E7DF4D
:1000E0008E017E0185E0E80EF11C8991E0DFEC16BF
:1000F000FD06D9F72A9A2A988BE2D9DFE601E5E0D6
:10010000CE0ED11C8991D3DFCC15DD05D9F72A9A03
:100110002A9880E3CCDFF80181918F01C8DF0E15AA
:100120001F05C9F72A9A2A9881E3C1DF8EE0BFDF55
:100130002A9A2A9882E3BBDF8EE0B9DF2A9A2A98AE
:1001400080E2B5DF8FE3B3DF2A9A2A9885E2AFDF3A
:100150008CE4ADDF2A9A2A9884E2A9DF83E0A7DF46
:100160002A9A2A9886E2A3DF88E0A1DF2A9A2A98B1
:1001700087E29DDF80E79BDF2A9A2A9882EE97DF4D
:100180002A9A2A9881EE93DF2A9ADF91CF911F91C4
:100190000F91FF90EF90DF90CF90089584B1866229
:1001A00084B929988AB188628AB95A9A7894E1E820
:1001B000F0E080818860808388EE93E090938900EE
:1001C00080938800EFE6F0E0808182608083E9E63A
:1001D000F0E0808182608083E89A5D9A2A9A60DFED
:1001E0008FE19EE40197F1F700C000005D988AE678
:1001F0005EDF80E15CDF5D9A65E071E080E091E0C8
:1002000062CF0895E1E6F0E080E8808381E08083BA
:1002100080B7806880BF83EE809364008FEF85B9DC
:1002200088B98BB9579ABADF5B9A2FEF89E698E1C4
:10023000215080409040E1F700C000005B98E1E869
:10024000F0E0808182608083299AFFCF0F931F9313
:10025000CF93DF938C0129982A9880E228DF8EE3E0
:1002600026DF2A9A83E091E00197F1F700C00000B1
:100270002A9887E21CDF80E71ADF2A9A2A9880EA08
:1002800016DFE801025F1F4F899111DFC017D10708
:10029000D9F72A9A299A83EF91E00197F1F700C0E4
:1002A000000029982A9887E107DFCAE0D1E0888317
:1002B0008FEF02DF89832A9A888185FF07C02A98F9
:1002C00087E2F5DE80E7F3DE2A9A04C02A9881EE01
:1002D000EEDE2A9ADF91CF911F910F9108951F9220
:1002E0000F920FB60F9211242F933F934F935F936A
:1002F0006F937F938F939F93AF93BF93CF93DF932E
:10030000EF93FF935F9A5D988BEBD1DE80E0D4DEB4
:10031000CAE1D1E0888380E0CFDE898380E0CCDE53
:100320008A8380E0C9DE8B8380E0C6DE8C8380E038
:10033000C3DE8D8380E0C0DE8E8380E0BDDE8F83F0
:1003400080E0BADE888780E0B7DE898780E0B4DEAF
:100350008A8780E0B1DE8B8780E0AEDE8C8780E02C
:10036000ABDE8D875D9ACE0171DF2A9880E29FDE39
:100370008FE39DDE2A9A299A5F98FF91EF91DF9192
:10038000CF91BF91AF919F918F917F916F915F912D
:100390004F913F912F910F900FBE0F901F90189586
:1003A000CF93DF932A9881E682DE80E085DECCE081
:1003B000D1E0888380E080DE898380E07DDE8A83EF
:1003C00080E07ADE8B8380E077DE8C8380E074DEF1
:1003D0008D8380E071DE8E8380E06EDE8F8380E02F
:1003E0006BDE888780E068DE898780E065DE8A874B
:1003F00080E062DE8B8780E05FDE8C8780E05CDE01
:100400008D872A9A2A9887E252DE80E750DE2A9A60
:100410002A9887E24CDE80E74ADE2A9ADF91CF9164
:1004200008951F920F920FB60F9211242F933F93AE
:100430004F935F936F937F938F939F93AF93BF93EC
:10044000CF93DF93EF93FF93C1E8D0E088818D7F56
:10045000888310928500109284005F9AA1DF5F98D4
:10046000888182608883FF91EF91DF91CF91BF9166
:10047000AF919F918F917F916F915F914F913F913C
:100480002F910F900FBE0F901F901895F894FFCFEB
:0A049000E1F0F0E8E877F0F0E8E8AA
:00000001FF
