:1000000033C000004CC000004AC0000048C00000DF
:1000100046C0000044C0000042C0000040C00000D4
:100020003EC000003CC000003AC0000051C00000CB
:1000300036C0000034C0000032C0000030C00000F4
:100040002EC000002CC000002AC0000028C0000004
:1000500026C0000024C0000022C0000020C0000014
:100060001EC000001CC0000011241FBECFEFD8E04E
:10007000DEBFCDBF11E0A0E0B1E0E4EBF3E002C0F1
:1000800005900D92AA30B107D9F728E0AAE0B1E0B7
:1000900001C01D92A93EB207E1F7E7D089C1B0CFF8
:1000A00084B18C6284B92A9A81E58CBD08958EBD95
:1000B0000DB407FEFDCF08951092C50087E680932A
:1000C000C40088E18093C10086E08093C200089557
:1000D0001F920F920FB60F92112410920A011092E4
:1000E000810010928500109284000F900FBE0F9037
:1000F0001F901895CF92DF92EF92FF920F931F936C
:10010000CF93DF936C01EB012A988AE2D0DF8E0156
:100110007E0185E0E80EF11C8991C9DFEC16FD0631
:10012000D9F72A9A2A988BE2C2DFE601E5E0CE0EE3
:10013000D11C8991BCDFCC15DD05D9F72A9A2A9804
:1001400080E3B5DFF80181918F01B1DF0E151F0546
:10015000C9F72A9A2A9881E3AADF8EE0A8DF2A9AB3
:100160002A9882E3A4DF8EE0A2DF2A9A2A9880E20E
:100170009EDF8FE09CDF2A9A2A9885E298DF8CE444
:1001800096DF2A9A2A9884E292DF8FE590DF2A9AF6
:100190002A9886E28CDF82E08ADF2A9A2A9887E210
:1001A00086DF80E784DF2A9A2A9882EE80DF2A9A07
:1001B0002A9881EE7CDF2A9ADF91CF911F910F91CF
:1001C000FF90EF90DF90CF9008950F931F93CF9300
:1001D000DF938C0129982A9880E269DF8EE067DF3F
:1001E0002A9A2A9887E263DF80E761DF2A9A2A98B1
:1001F00080EA5DDFE801025F1F4F899158DFC01779
:10020000D107D9F72A9A299A8AE68A95F1F700C088
:100210002998EBE0F1E087E180838FEF81832A98D2
:1002200087E145DF0DB407FEFDCF8EB580930B014E
:100230008FEF3DDF0DB407FEFDCF8EB5EBE0F1E0B3
:1002400081832A9A808185FF07C02A9887E22FDF61
:1002500080E72DDF2A9A04C02A988EE028DF2A9AA8
:10026000DF91CF911F910F910895CF93DF93CDB779
:10027000DEB72A970FB6F894DEBF0FBECDBF7894D5
:1002800088E09DE39093890080938800EFE6F0E09A
:1002900080818260808384B1866084B9299800DF80
:1002A0000BDF88E48093B80085E0E0E0F1E0DE0158
:1002B000119601900D928A95E1F785E0E5E0F1E075
:1002C000DE01169601900D928A95E1F7BE016F5FEF
:1002D0007F4FCE0106960EDF1092DB080CEB10E08C
:1002E0000F2EF4EA7F2EF02D0F2EFBEBEF2EF12CCC
:1002F000F02D0F2EF0ED4F2EF02D0F2EF4E88F2E57
:10030000F02D0F2EFBE35F2EF02D0F2EF1ED6F2E53
:10031000F02D0F2EF8EECF2EF8E0DF2EF02D0F2E61
:10032000F4EC9F2EF02D0F2EFBEDAF2EF8E0BF2E3C
:10033000F02DD8017C92F80180818823E4F7D70161
:100340004C928082F80180818823E4F7D7015C9287
:100350008082F80180818823E4F77082D8018C9133
:100360008823E4F7F70160828C92D8018C9188236E
:10037000E4F7EBEDF8E0D8019C92D8018C9188234A
:10038000E4F7D7018C918193EC15FD05A1F7F801F5
:100390008082D8018C918823E4F7F7018081D50110
:1003A0001D968C9384E9F8018083C5010EDFC1CFCF
:0403B000F894FFCFEF
:0A03B40088F0F0E8E8E1F0F0E8E876
:00000001FF
