:1000000033C0000044C0000042C0000040C00000F7
:100010003EC000003CC000003AC0000038C00000F4
:1000200036C0000034C0000032C0000030C0000004
:100030002EC000002CC000002AC0000028C0000014
:1000400026C0000024C0000022C0000020C0000024
:100050001EC000001CC000001AC0000018C0000034
:1000600016C0000014C0000011241FBECFEFD8E05E
:10007000DEBFCDBF11E0A0E0B1E0EAEEF1E002C0EA
:1000800005900D92AA30B107D9F786D0ACC0B8CF91
:100090008CE284B981E58CBD08958EBD0DB407FE58
:1000A000FDCF08951092C50087E68093C40088E1D3
:1000B0008093C10086E08093C2000895CF92DF92C2
:1000C000EF92FF920F931F93CF93DF936C017B010D
:1000D0005E988AE2E2DF8701E7012596F8018191C7
:1000E0008F01DBDFC017D107C9F75E9A5E988BE2FC
:1000F000D4DF8601F5E0CF0ED11CF80181918F018C
:10010000CCDFC016D106C9F75E9A5E988AE2C5DFD9
:100110008701065F1F4F8991C0DFC017D107D9F74C
:100120005E9A5E9881E3B9DF80E2B7DF5E9A5E98FF
:1001300082E3B3DF80E2B1DF5E9A5E9880E2ADDFFA
:100140008FE0ABDF5E9A5E9885E2A7DF8CE4A5DFE7
:100150005E9A5E9884E2A1DF8FE59FDF5E9A5E98EB
:1001600086E29BDF82E099DF5E9A5E9887E295DF08
:1001700080E793DF5E9A5E9882EE8FDF5E9A5E98EC
:1001800081EE8BDF5E9ADF91CF911F910F91FF90EF
:10019000EF90DF90CF900895CF93DF93CDB7DEB788
:1001A0002A970FB6F894DEBF0FBECDBF71DF7ADF9E
:1001B00085E0E0E0F1E0DE01119601900D928A9574
:1001C000E1F785E0E5E0F1E0DE01169601900D92A1
:1001D0008A95E1F7BE016F5F7F4FCE0106966EDF15
:0A01E00081E65BDFFDCFF894FFCF4E
:0A01EA00E1F0F0E8E888F0F0E8E842
:00000001FF
